{
  "contractName": "PairFlash",
  "abi": [
    {
      "inputs": [
        {
          "internalType": "contract ISwapRouter",
          "name": "_swapRouter",
          "type": "address"
        },
        {
          "internalType": "address",
          "name": "_factory",
          "type": "address"
        },
        {
          "internalType": "address",
          "name": "_WETH9",
          "type": "address"
        }
      ],
      "stateMutability": "nonpayable",
      "type": "constructor"
    },
    {
      "inputs": [],
      "name": "WETH9",
      "outputs": [
        {
          "internalType": "address",
          "name": "",
          "type": "address"
        }
      ],
      "stateMutability": "view",
      "type": "function"
    },
    {
      "inputs": [],
      "name": "factory",
      "outputs": [
        {
          "internalType": "address",
          "name": "",
          "type": "address"
        }
      ],
      "stateMutability": "view",
      "type": "function"
    },
    {
      "inputs": [],
      "name": "refundETH",
      "outputs": [],
      "stateMutability": "payable",
      "type": "function"
    },
    {
      "inputs": [],
      "name": "swapRouter",
      "outputs": [
        {
          "internalType": "contract ISwapRouter",
          "name": "",
          "type": "address"
        }
      ],
      "stateMutability": "view",
      "type": "function"
    },
    {
      "inputs": [
        {
          "internalType": "address",
          "name": "token",
          "type": "address"
        },
        {
          "internalType": "uint256",
          "name": "amountMinimum",
          "type": "uint256"
        },
        {
          "internalType": "address",
          "name": "recipient",
          "type": "address"
        }
      ],
      "name": "sweepToken",
      "outputs": [],
      "stateMutability": "payable",
      "type": "function"
    },
    {
      "inputs": [
        {
          "internalType": "uint256",
          "name": "amountMinimum",
          "type": "uint256"
        },
        {
          "internalType": "address",
          "name": "recipient",
          "type": "address"
        }
      ],
      "name": "unwrapWETH9",
      "outputs": [],
      "stateMutability": "payable",
      "type": "function"
    },
    {
      "stateMutability": "payable",
      "type": "receive"
    },
    {
      "inputs": [
        {
          "internalType": "uint256",
          "name": "fee0",
          "type": "uint256"
        },
        {
          "internalType": "uint256",
          "name": "fee1",
          "type": "uint256"
        },
        {
          "internalType": "bytes",
          "name": "data",
          "type": "bytes"
        }
      ],
      "name": "uniswapV3FlashCallback",
      "outputs": [],
      "stateMutability": "nonpayable",
      "type": "function"
    },
    {
      "inputs": [
        {
          "components": [
            {
              "internalType": "address",
              "name": "token0",
              "type": "address"
            },
            {
              "internalType": "address",
              "name": "token1",
              "type": "address"
            },
            {
              "internalType": "uint24",
              "name": "fee1",
              "type": "uint24"
            },
            {
              "internalType": "uint256",
              "name": "amount0",
              "type": "uint256"
            },
            {
              "internalType": "uint256",
              "name": "amount1",
              "type": "uint256"
            },
            {
              "internalType": "uint24",
              "name": "fee2",
              "type": "uint24"
            },
            {
              "internalType": "uint24",
              "name": "fee3",
              "type": "uint24"
            }
          ],
          "internalType": "struct PairFlash.FlashParams",
          "name": "params",
          "type": "tuple"
        }
      ],
      "name": "initFlash",
      "outputs": [],
      "stateMutability": "nonpayable",
      "type": "function"
    }
  ],
  "bytecode": "0x60e06040523480156200001157600080fd5b50604051620021ec380380620021ec833981810160405281019062000037919062000117565b81818173ffffffffffffffffffffffffffffffffffffffff1660808173ffffffffffffffffffffffffffffffffffffffff1660601b815250508073ffffffffffffffffffffffffffffffffffffffff1660a08173ffffffffffffffffffffffffffffffffffffffff1660601b8152505050508273ffffffffffffffffffffffffffffffffffffffff1660c08173ffffffffffffffffffffffffffffffffffffffff1660601b81525050505050620001e9565b600081519050620000fa81620001b5565b92915050565b6000815190506200011181620001cf565b92915050565b6000806000606084860312156200012d57600080fd5b60006200013d8682870162000100565b93505060206200015086828701620000e9565b92505060406200016386828701620000e9565b9150509250925092565b60006200017a8262000195565b9050919050565b60006200018e826200016d565b9050919050565b600073ffffffffffffffffffffffffffffffffffffffff82169050919050565b620001c0816200016d565b8114620001cc57600080fd5b50565b620001da8162000181565b8114620001e657600080fd5b50565b60805160601c60a05160601c60c05160601c611f926200025a6000398061060052806107df528061080e528061085f52806109ad525080608652806103fe528061054152806105dc5280611313528061137352806113f45250806102da528061062452806107955250611f926000f3fe60806040526004361061007f5760003560e01c8063c31c9c071161004e578063c31c9c07146101c6578063c45a0155146101f1578063df2ab5bb1461021c578063e9cbafb01461023857610147565b806312210e8a1461014c5780632384463b1461015657806349404b7c1461017f5780634aa4a4fc1461019b57610147565b36610147577f000000000000000000000000000000000000000000000000000000000000000073ffffffffffffffffffffffffffffffffffffffff163373ffffffffffffffffffffffffffffffffffffffff1614610145576040517f08c379a00000000000000000000000000000000000000000000000000000000081526004018080602001828103825260098152602001807f4e6f74205745544839000000000000000000000000000000000000000000000081525060200191505060405180910390fd5b005b600080fd5b610154610261565b005b34801561016257600080fd5b5061017d60048036038101906101789190611a1a565b610277565b005b61019960048036038101906101949190611a6c565b6103fa565b005b3480156101a757600080fd5b506101b06105da565b6040516101bd9190611d25565b60405180910390f35b3480156101d257600080fd5b506101db6105fe565b6040516101e89190611d8c565b60405180910390f35b3480156101fd57600080fd5b50610206610622565b6040516102139190611d25565b60405180910390f35b610236600480360381019061023191906119a1565b610646565b005b34801561024457600080fd5b5061025f600480360381019061025a9190611aa8565b61077d565b005b6000471115610275576102743347610bd2565b5b565b60006040518060600160405280836000015173ffffffffffffffffffffffffffffffffffffffff168152602001836020015173ffffffffffffffffffffffffffffffffffffffff168152602001836040015162ffffff16815250905060006102ff7f000000000000000000000000000000000000000000000000000000000000000083610d4e565b90508073ffffffffffffffffffffffffffffffffffffffff1663490e6cbc30856060015186608001516040518060c0016040528089606001518152602001896080015181526020013373ffffffffffffffffffffffffffffffffffffffff1681526020018881526020018960a0015162ffffff1681526020018960c0015162ffffff168152506040516020016103959190611dc3565b6040516020818303038152906040526040518563ffffffff1660e01b81526004016103c39493929190611d40565b600060405180830381600087803b1580156103dd57600080fd5b505af11580156103f1573d6000803e3d6000fd5b50505050505050565b60007f000000000000000000000000000000000000000000000000000000000000000073ffffffffffffffffffffffffffffffffffffffff166370a08231306040518263ffffffff1660e01b8152600401808273ffffffffffffffffffffffffffffffffffffffff16815260200191505060206040518083038186803b15801561048357600080fd5b505afa158015610497573d6000803e3d6000fd5b505050506040513d60208110156104ad57600080fd5b8101908080519060200190929190505050905082811015610536576040517f08c379a00000000000000000000000000000000000000000000000000000000081526004018080602001828103825260128152602001807f496e73756666696369656e74205745544839000000000000000000000000000081525060200191505060405180910390fd5b60008111156105d5577f000000000000000000000000000000000000000000000000000000000000000073ffffffffffffffffffffffffffffffffffffffff16632e1a7d4d826040518263ffffffff1660e01b815260040180828152602001915050600060405180830381600087803b1580156105b257600080fd5b505af11580156105c6573d6000803e3d6000fd5b505050506105d48282610bd2565b5b505050565b7f000000000000000000000000000000000000000000000000000000000000000081565b7f000000000000000000000000000000000000000000000000000000000000000081565b7f000000000000000000000000000000000000000000000000000000000000000081565b60008373ffffffffffffffffffffffffffffffffffffffff166370a08231306040518263ffffffff1660e01b8152600401808273ffffffffffffffffffffffffffffffffffffffff16815260200191505060206040518083038186803b1580156106af57600080fd5b505afa1580156106c3573d6000803e3d6000fd5b505050506040513d60208110156106d957600080fd5b8101908080519060200190929190505050905082811015610762576040517f08c379a00000000000000000000000000000000000000000000000000000000081526004018080602001828103825260128152602001807f496e73756666696369656e7420746f6b656e000000000000000000000000000081525060200191505060405180910390fd5b600081111561077757610776848383610ea9565b5b50505050565b6000828281019061078e91906119f0565b90506107be7f000000000000000000000000000000000000000000000000000000000000000082606001516110aa565b506000816060015160000151905060008260600151602001519050610808827f000000000000000000000000000000000000000000000000000000000000000085600001516110f6565b610837817f000000000000000000000000000000000000000000000000000000000000000085602001516110f6565b60006108478460200151886112f7565b9050600061085985600001518a6112f7565b905060007f000000000000000000000000000000000000000000000000000000000000000073ffffffffffffffffffffffffffffffffffffffff1663414bf3896040518061010001604052808773ffffffffffffffffffffffffffffffffffffffff1681526020018873ffffffffffffffffffffffffffffffffffffffff168152602001896080015162ffffff1681526020013073ffffffffffffffffffffffffffffffffffffffff16815260200142815260200189602001518152602001858152602001600073ffffffffffffffffffffffffffffffffffffffff168152506040518263ffffffff1660e01b81526004016109559190611da7565b602060405180830381600087803b15801561096f57600080fd5b505af1158015610983573d6000803e3d6000fd5b505050506040513d601f19601f820116820180604052508101906109a79190611a43565b905060007f000000000000000000000000000000000000000000000000000000000000000073ffffffffffffffffffffffffffffffffffffffff1663414bf3896040518061010001604052808973ffffffffffffffffffffffffffffffffffffffff1681526020018873ffffffffffffffffffffffffffffffffffffffff1681526020018a60a0015162ffffff1681526020013073ffffffffffffffffffffffffffffffffffffffff1681526020014281526020018a600001518152602001878152602001600073ffffffffffffffffffffffffffffffffffffffff168152506040518263ffffffff1660e01b8152600401610aa39190611da7565b602060405180830381600087803b158015610abd57600080fd5b505af1158015610ad1573d6000803e3d6000fd5b505050506040513d601f19601f82011682018060405250810190610af59190611a43565b90506000610b0788600001518d6112f7565b90506000610b1989602001518d6112f7565b9050610b268830846110f6565b610b318730836110f6565b6000821115610b4757610b4688303385611311565b5b6000811115610b5d57610b5c87303384611311565b5b81841115610b90576000610b71858461151c565b9050610b7e8930836110f6565b610b8e89308c6040015184611311565b505b80831115610bc3576000610ba4848361151c565b9050610bb18930836110f6565b610bc188308c6040015184611311565b505b50505050505050505050505050565b60008273ffffffffffffffffffffffffffffffffffffffff1682600067ffffffffffffffff81118015610c0457600080fd5b506040519080825280601f01601f191660200182016040528015610c375781602001600182028036833780820191505090505b506040518082805190602001908083835b60208310610c6b5780518252602082019150602081019050602083039250610c48565b6001836020036101000a03801982511681845116808217855250505050505090500191505060006040518083038185875af1925050503d8060008114610ccd576040519150601f19603f3d011682016040523d82523d6000602084013e610cd2565b606091505b5050905080610d49576040517f08c379a00000000000000000000000000000000000000000000000000000000081526004018080602001828103825260038152602001807f535445000000000000000000000000000000000000000000000000000000000081525060200191505060405180910390fd5b505050565b6000816020015173ffffffffffffffffffffffffffffffffffffffff16826000015173ffffffffffffffffffffffffffffffffffffffff1610610d9057600080fd5b82826000015183602001518460400151604051602001808473ffffffffffffffffffffffffffffffffffffffff1681526020018373ffffffffffffffffffffffffffffffffffffffff1681526020018262ffffff1681526020019350505050604051602081830303815290604052805190602001207fe34f199b19b2b4f47f68442619d555527d244f78a3297ea89325f843f87b8b5460001b60405160200180807fff000000000000000000000000000000000000000000000000000000000000008152506001018473ffffffffffffffffffffffffffffffffffffffff1660601b815260140183815260200182815260200193505050506040516020818303038152906040528051906020012060001c905092915050565b6000808473ffffffffffffffffffffffffffffffffffffffff1663a9059cbb60e01b8585604051602401808373ffffffffffffffffffffffffffffffffffffffff16815260200182815260200192505050604051602081830303815290604052907bffffffffffffffffffffffffffffffffffffffffffffffffffffffff19166020820180517bffffffffffffffffffffffffffffffffffffffffffffffffffffffff83818316178352505050506040518082805190602001908083835b60208310610f8a5780518252602082019150602081019050602083039250610f67565b6001836020036101000a0380198251168184511680821785525050505050509050019150506000604051808303816000865af19150503d8060008114610fec576040519150601f19603f3d011682016040523d82523d6000602084013e610ff1565b606091505b50915091508180156110315750600081511480611030575080806020019051602081101561101e57600080fd5b81019080805190602001909291905050505b5b6110a3576040517f08c379a00000000000000000000000000000000000000000000000000000000081526004018080602001828103825260028152602001807f535400000000000000000000000000000000000000000000000000000000000081525060200191505060405180910390fd5b5050505050565b60006110b68383610d4e565b90508073ffffffffffffffffffffffffffffffffffffffff163373ffffffffffffffffffffffffffffffffffffffff16146110f057600080fd5b92915050565b6000808473ffffffffffffffffffffffffffffffffffffffff1663095ea7b360e01b8585604051602401808373ffffffffffffffffffffffffffffffffffffffff16815260200182815260200192505050604051602081830303815290604052907bffffffffffffffffffffffffffffffffffffffffffffffffffffffff19166020820180517bffffffffffffffffffffffffffffffffffffffffffffffffffffffff83818316178352505050506040518082805190602001908083835b602083106111d757805182526020820191506020810190506020830392506111b4565b6001836020036101000a0380198251168184511680821785525050505050509050019150506000604051808303816000865af19150503d8060008114611239576040519150601f19603f3d011682016040523d82523d6000602084013e61123e565b606091505b509150915081801561127e575060008151148061127d575080806020019051602081101561126b57600080fd5b81019080805190602001909291905050505b5b6112f0576040517f08c379a00000000000000000000000000000000000000000000000000000000081526004018080602001828103825260028152602001807f534100000000000000000000000000000000000000000000000000000000000081525060200191505060405180910390fd5b5050505050565b600082828401915081101561130b57600080fd5b92915050565b7f000000000000000000000000000000000000000000000000000000000000000073ffffffffffffffffffffffffffffffffffffffff168473ffffffffffffffffffffffffffffffffffffffff1614801561136c5750804710155b156114c4577f000000000000000000000000000000000000000000000000000000000000000073ffffffffffffffffffffffffffffffffffffffff1663d0e30db0826040518263ffffffff1660e01b81526004016000604051808303818588803b1580156113d957600080fd5b505af11580156113ed573d6000803e3d6000fd5b50505050507f000000000000000000000000000000000000000000000000000000000000000073ffffffffffffffffffffffffffffffffffffffff1663a9059cbb83836040518363ffffffff1660e01b8152600401808373ffffffffffffffffffffffffffffffffffffffff16815260200182815260200192505050602060405180830381600087803b15801561148357600080fd5b505af1158015611497573d6000803e3d6000fd5b505050506040513d60208110156114ad57600080fd5b810190808051906020019092919050505050611516565b3073ffffffffffffffffffffffffffffffffffffffff168373ffffffffffffffffffffffffffffffffffffffff16141561150857611503848383610ea9565b611515565b61151484848484611536565b5b5b50505050565b600082828403915081111561153057600080fd5b92915050565b6000808573ffffffffffffffffffffffffffffffffffffffff166323b872dd60e01b868686604051602401808473ffffffffffffffffffffffffffffffffffffffff1681526020018373ffffffffffffffffffffffffffffffffffffffff1681526020018281526020019350505050604051602081830303815290604052907bffffffffffffffffffffffffffffffffffffffffffffffffffffffff19166020820180517bffffffffffffffffffffffffffffffffffffffffffffffffffffffff83818316178352505050506040518082805190602001908083835b602083106116355780518252602082019150602081019050602083039250611612565b6001836020036101000a0380198251168184511680821785525050505050509050019150506000604051808303816000865af19150503d8060008114611697576040519150601f19603f3d011682016040523d82523d6000602084013e61169c565b606091505b50915091508180156116dc57506000815114806116db57508080602001905160208110156116c957600080fd5b81019080805190602001909291905050505b5b61174e576040517f08c379a00000000000000000000000000000000000000000000000000000000081526004018080602001828103825260038152602001807f535446000000000000000000000000000000000000000000000000000000000081525060200191505060405180910390fd5b505050505050565b60008135905061176581611f17565b92915050565b60008083601f84011261177d57600080fd5b8235905067ffffffffffffffff81111561179657600080fd5b6020830191508360018202830111156117ae57600080fd5b9250929050565b600061010082840312156117c857600080fd5b6117d260c0611ddf565b905060006117e284828501611977565b60008301525060206117f684828501611977565b602083015250604061180a84828501611756565b604083015250606061181e84828501611902565b60608301525060c061183284828501611962565b60808301525060e061184684828501611962565b60a08301525092915050565b600060e0828403121561186457600080fd5b61186e60e0611ddf565b9050600061187e84828501611756565b600083015250602061189284828501611756565b60208301525060406118a684828501611962565b60408301525060606118ba84828501611977565b60608301525060806118ce84828501611977565b60808301525060a06118e284828501611962565b60a08301525060c06118f684828501611962565b60c08301525092915050565b60006060828403121561191457600080fd5b61191e6060611ddf565b9050600061192e84828501611756565b600083015250602061194284828501611756565b602083015250604061195684828501611962565b60408301525092915050565b60008135905061197181611f2e565b92915050565b60008135905061198681611f45565b92915050565b60008151905061199b81611f45565b92915050565b6000806000606084860312156119b657600080fd5b60006119c486828701611756565b93505060206119d586828701611977565b92505060406119e686828701611756565b9150509250925092565b60006101008284031215611a0357600080fd5b6000611a11848285016117b5565b91505092915050565b600060e08284031215611a2c57600080fd5b6000611a3a84828501611852565b91505092915050565b600060208284031215611a5557600080fd5b6000611a638482850161198c565b91505092915050565b60008060408385031215611a7f57600080fd5b6000611a8d85828601611977565b9250506020611a9e85828601611756565b9150509250929050565b60008060008060608587031215611abe57600080fd5b6000611acc87828801611977565b9450506020611add87828801611977565b935050604085013567ffffffffffffffff811115611afa57600080fd5b611b068782880161176b565b925092505092959194509250565b611b1d81611e77565b82525050565b611b2c81611e2c565b82525050565b611b3b81611e2c565b82525050565b6000611b4c82611e10565b611b568185611e1b565b9350611b66818560208601611ed1565b611b6f81611f06565b840191505092915050565b611b8381611e89565b82525050565b61010082016000820151611ba06000850182611b23565b506020820151611bb36020850182611b23565b506040820151611bc66040850182611cf8565b506060820151611bd96060850182611b23565b506080820151611bec6080850182611d07565b5060a0820151611bff60a0850182611d07565b5060c0820151611c1260c0850182611d07565b5060e0820151611c2560e0850182611ce9565b50505050565b61010082016000820151611c426000850182611d07565b506020820151611c556020850182611d07565b506040820151611c686040850182611b23565b506060820151611c7b6060850182611ca7565b506080820151611c8e60c0850182611cf8565b5060a0820151611ca160e0850182611cf8565b50505050565b606082016000820151611cbd6000850182611b23565b506020820151611cd06020850182611b23565b506040820151611ce36040850182611cf8565b50505050565b611cf281611e3e565b82525050565b611d0181611e5e565b82525050565b611d1081611e6d565b82525050565b611d1f81611e6d565b82525050565b6000602082019050611d3a6000830184611b32565b92915050565b6000608082019050611d556000830187611b14565b611d626020830186611d16565b611d6f6040830185611d16565b8181036060830152611d818184611b41565b905095945050505050565b6000602082019050611da16000830184611b7a565b92915050565b600061010082019050611dbd6000830184611b89565b92915050565b600061010082019050611dd96000830184611c2b565b92915050565b6000604051905081810181811067ffffffffffffffff82111715611e0657611e05611f04565b5b8060405250919050565b600081519050919050565b600082825260208201905092915050565b6000611e3782611e3e565b9050919050565b600073ffffffffffffffffffffffffffffffffffffffff82169050919050565b600062ffffff82169050919050565b6000819050919050565b6000611e8282611ead565b9050919050565b6000611e9482611e9b565b9050919050565b6000611ea682611e3e565b9050919050565b6000611eb882611ebf565b9050919050565b6000611eca82611e3e565b9050919050565b60005b83811015611eef578082015181840152602081019050611ed4565b83811115611efe576000848401525b50505050565bfe5b6000601f19601f8301169050919050565b611f2081611e2c565b8114611f2b57600080fd5b50565b611f3781611e5e565b8114611f4257600080fd5b50565b611f4e81611e6d565b8114611f5957600080fd5b5056fea2646970667358221220ea6bc56af9850aa1e144ca56fca524d80ecda140cecf482cd6a477f29c08e45764736f6c63430007060033",
  "immutableReferences": {
    "687": [
      {
        "length": 32,
        "start": 730
      },
      {
        "length": 32,
        "start": 1572
      },
      {
        "length": 32,
        "start": 1941
      }
    ],
    "691": [
      {
        "length": 32,
        "start": 134
      },
      {
        "length": 32,
        "start": 1022
      },
      {
        "length": 32,
        "start": 1345
      },
      {
        "length": 32,
        "start": 1500
      },
      {
        "length": 32,
        "start": 4883
      },
      {
        "length": 32,
        "start": 4979
      },
      {
        "length": 32,
        "start": 5108
      }
    ],
    "1424": [
      {
        "length": 32,
        "start": 1536
      },
      {
        "length": 32,
        "start": 2015
      },
      {
        "length": 32,
        "start": 2062
      },
      {
        "length": 32,
        "start": 2143
      },
      {
        "length": 32,
        "start": 2477
      }
    ]
  },
  "source": "// SPDX-License-Identifier: GPL-2.0-or-later\r\npragma solidity ^0.7.6;\r\npragma abicoder v2;\r\n\r\nimport '@uniswap/v3-core/contracts/interfaces/callback/IUniswapV3FlashCallback.sol';\r\nimport '@uniswap/v3-core/contracts/libraries/LowGasSafeMath.sol';\r\n\r\nimport '@uniswap/v3-periphery/contracts/base/PeripheryPayments.sol';\r\nimport '@uniswap/v3-periphery/contracts/base/PeripheryImmutableState.sol';\r\nimport '@uniswap/v3-periphery/contracts/libraries/PoolAddress.sol';\r\nimport '@uniswap/v3-periphery/contracts/libraries/CallbackValidation.sol';\r\nimport '@uniswap/v3-periphery/contracts/libraries/TransferHelper.sol';\r\nimport '@uniswap/v3-periphery/contracts/interfaces/ISwapRouter.sol';\r\n\r\n/// @title Flash contract implementation\r\n/// @notice An example contract using the Uniswap V3 flash function\r\ncontract PairFlash is IUniswapV3FlashCallback, PeripheryImmutableState, PeripheryPayments {\r\n    using LowGasSafeMath for uint256;\r\n    using LowGasSafeMath for int256;\r\n\r\n    ISwapRouter public immutable swapRouter;\r\n\r\n    constructor(\r\n        ISwapRouter _swapRouter,\r\n        address _factory,\r\n        address _WETH9\r\n    ) PeripheryImmutableState(_factory, _WETH9) {\r\n        swapRouter = _swapRouter;\r\n    }\r\n\r\n    /// @param fee0 The fee from calling flash for token0\r\n    /// @param fee1 The fee from calling flash for token1\r\n    /// @param data The data needed in the callback passed as FlashCallbackData from `initFlash`\r\n    /// @notice implements the callback called from flash\r\n    /// @dev fails if the flash is not profitable, meaning the amountOut from the flash is less than the amount borrowed\r\n    function uniswapV3FlashCallback(\r\n        uint256 fee0,\r\n        uint256 fee1,\r\n        bytes calldata data\r\n    ) external override {\r\n        FlashCallbackData memory decoded = abi.decode(data, (FlashCallbackData));\r\n        CallbackValidation.verifyCallback(factory, decoded.poolKey);\r\n\r\n        address token0 = decoded.poolKey.token0;\r\n        address token1 = decoded.poolKey.token1;\r\n\r\n        TransferHelper.safeApprove(token0, address(swapRouter), decoded.amount0);\r\n        TransferHelper.safeApprove(token1, address(swapRouter), decoded.amount1);\r\n\r\n        // profitable check\r\n        // exactInputSingle will fail if this amount not met\r\n        uint256 amount1Min = LowGasSafeMath.add(decoded.amount1, fee1);\r\n        uint256 amount0Min = LowGasSafeMath.add(decoded.amount0, fee0);\r\n\r\n        // call exactInputSingle for swapping token1 for token0 in pool w/fee2\r\n        uint256 amountOut0 =\r\n            swapRouter.exactInputSingle(\r\n                ISwapRouter.ExactInputSingleParams({\r\n                    tokenIn: token1,\r\n                    tokenOut: token0,\r\n                    fee: decoded.poolFee2,\r\n                    recipient: address(this),\r\n                    deadline: block.timestamp,\r\n                    amountIn: decoded.amount1,\r\n                    amountOutMinimum: amount0Min,\r\n                    sqrtPriceLimitX96: 0\r\n                })\r\n            );\r\n\r\n        // call exactInputSingle for swapping token0 for token 1 in pool w/fee3\r\n        uint256 amountOut1 =\r\n            swapRouter.exactInputSingle(\r\n                ISwapRouter.ExactInputSingleParams({\r\n                    tokenIn: token0,\r\n                    tokenOut: token1,\r\n                    fee: decoded.poolFee3,\r\n                    recipient: address(this),\r\n                    deadline: block.timestamp,\r\n                    amountIn: decoded.amount0,\r\n                    amountOutMinimum: amount1Min,\r\n                    sqrtPriceLimitX96: 0\r\n                })\r\n            );\r\n\r\n        // end up with amountOut0 of token0 from first swap and amountOut1 of token1 from second swap\r\n        uint256 amount0Owed = LowGasSafeMath.add(decoded.amount0, fee0);\r\n        uint256 amount1Owed = LowGasSafeMath.add(decoded.amount1, fee1);\r\n\r\n        TransferHelper.safeApprove(token0, address(this), amount0Owed);\r\n        TransferHelper.safeApprove(token1, address(this), amount1Owed);\r\n\r\n        if (amount0Owed > 0) pay(token0, address(this), msg.sender, amount0Owed);\r\n        if (amount1Owed > 0) pay(token1, address(this), msg.sender, amount1Owed);\r\n\r\n        // if profitable pay profits to payer\r\n        if (amountOut0 > amount0Owed) {\r\n            uint256 profit0 = LowGasSafeMath.sub(amountOut0, amount0Owed);\r\n\r\n            TransferHelper.safeApprove(token0, address(this), profit0);\r\n            pay(token0, address(this), decoded.payer, profit0);\r\n        }\r\n        if (amountOut1 > amount1Owed) {\r\n            uint256 profit1 = LowGasSafeMath.sub(amountOut1, amount1Owed);\r\n            TransferHelper.safeApprove(token0, address(this), profit1);\r\n            pay(token1, address(this), decoded.payer, profit1);\r\n        }\r\n    }\r\n\r\n    //fee1 is the fee of the pool from the initial borrow\r\n    //fee2 is the fee of the first pool to arb from\r\n    //fee3 is the fee of the second pool to arb from\r\n    struct FlashParams {\r\n        address token0;\r\n        address token1;\r\n        uint24 fee1;\r\n        uint256 amount0;\r\n        uint256 amount1;\r\n        uint24 fee2;\r\n        uint24 fee3;\r\n    }\r\n    // fee2 and fee3 are the two other fees associated with the two other pools of token0 and token1\r\n    struct FlashCallbackData {\r\n        uint256 amount0;\r\n        uint256 amount1;\r\n        address payer;\r\n        PoolAddress.PoolKey poolKey;\r\n        uint24 poolFee2;\r\n        uint24 poolFee3;\r\n    }\r\n\r\n    /// @param params The parameters necessary for flash and the callback, passed in as FlashParams\r\n    /// @notice Calls the pools flash function with data needed in `uniswapV3FlashCallback`\r\n    function initFlash(FlashParams memory params) external {\r\n        PoolAddress.PoolKey memory poolKey =\r\n            PoolAddress.PoolKey({token0: params.token0, token1: params.token1, fee: params.fee1});\r\n        IUniswapV3Pool pool = IUniswapV3Pool(PoolAddress.computeAddress(factory, poolKey));\r\n        // recipient of borrowed amounts\r\n        // amount of token0 requested to borrow\r\n        // amount of token1 requested to borrow\r\n        // need amount 0 and amount1 in callback to pay back pool\r\n        // recipient of flash should be THIS contract\r\n        pool.flash(\r\n            address(this),\r\n            params.amount0,\r\n            params.amount1,\r\n            abi.encode(\r\n                FlashCallbackData({\r\n                    amount0: params.amount0,\r\n                    amount1: params.amount1,\r\n                    payer: msg.sender,\r\n                    poolKey: poolKey,\r\n                    poolFee2: params.fee2,\r\n                    poolFee3: params.fee3\r\n                })\r\n            )\r\n        );\r\n    }\r\n}\r\n",
  "sourcePath": "C:\\Users\\leviw\\flashswap\\contracts\\flashswap.sol",
  "compiler": {
    "name": "solc",
    "version": "0.7.6+commit.7338295f.Emscripten.clang"
  },
  "schemaVersion": "3.4.16",
  "updatedAt": "2023-12-20T01:27:47.715Z",
  "devdoc": {
    "kind": "dev",
    "methods": {
      "initFlash((address,address,uint24,uint256,uint256,uint24,uint24))": {
        "params": {
          "params": "The parameters necessary for flash and the callback, passed in as FlashParams"
        }
      },
      "refundETH()": {
        "details": "Useful for bundling with mint or increase liquidity that uses ether, or exact output swaps that use ether for the input amount"
      },
      "sweepToken(address,uint256,address)": {
        "details": "The amountMinimum parameter prevents malicious contracts from stealing the token from users",
        "params": {
          "amountMinimum": "The minimum amount of token required for a transfer",
          "recipient": "The destination address of the token",
          "token": "The contract address of the token which will be transferred to `recipient`"
        }
      },
      "uniswapV3FlashCallback(uint256,uint256,bytes)": {
        "details": "fails if the flash is not profitable, meaning the amountOut from the flash is less than the amount borrowed",
        "params": {
          "data": "The data needed in the callback passed as FlashCallbackData from `initFlash`",
          "fee0": "The fee from calling flash for token0",
          "fee1": "The fee from calling flash for token1"
        }
      },
      "unwrapWETH9(uint256,address)": {
        "details": "The amountMinimum parameter prevents malicious contracts from stealing WETH9 from users.",
        "params": {
          "amountMinimum": "The minimum amount of WETH9 to unwrap",
          "recipient": "The address receiving ETH"
        }
      }
    },
    "title": "Flash contract implementation",
    "version": 1
  },
  "userdoc": {
    "kind": "user",
    "methods": {
      "initFlash((address,address,uint24,uint256,uint256,uint24,uint24))": {
        "notice": "Calls the pools flash function with data needed in `uniswapV3FlashCallback`"
      },
      "refundETH()": {
        "notice": "Refunds any ETH balance held by this contract to the `msg.sender`"
      },
      "sweepToken(address,uint256,address)": {
        "notice": "Transfers the full amount of a token held by this contract to recipient"
      },
      "uniswapV3FlashCallback(uint256,uint256,bytes)": {
        "notice": "implements the callback called from flash"
      },
      "unwrapWETH9(uint256,address)": {
        "notice": "Unwraps the contract's WETH9 balance and sends it to recipient as ETH."
      }
    },
    "notice": "An example contract using the Uniswap V3 flash function",
    "version": 1
  }
}